{
  "transactions": [
    {
      "hash": "0x45388e390419b301df9eee446cd67b5d9308782a436c584ad71098682558759b",
      "transactionType": "CREATE",
      "contractName": "SimplePriceOracle",
      "contractAddress": "0x55f1eda7d273cc6422b9d91b8ca3fc9952fad563",
      "function": null,
      "arguments": null,
      "transaction": {
        "from": "0x84d98c4faa590cd7ca746e18acf3bce8ad61e1b2",
        "gas": "0x21b26",
        "value": "0x0",
        "input": "0x608080604052346100155760f4908161001a8239f35b5f80fdfe60808060405260043610156011575f80fd5b5f3560e01c908163456e08e214609f57508063c0d786551460625763f887ea40146039575f80fd5b34605e575f366003190112605e575f546040516001600160a01b039091168152602090f35b5f80fd5b34605e576020366003190112605e576004356001600160a01b03811690819003605e576bffffffffffffffffffffffff60a01b5f5416175f555f80f35b34605e575f366003190112605e5780682086ac35105260000060209252f3fea264697066735822122023cee38765671f2435306966c9de771c3eadcf770d60820cdb3a38fec614ae3264736f6c63430008180033",
        "nonce": "0x22f",
        "chainId": "0x61"
      },
      "additionalContracts": [],
      "isFixedGasLimit": false
    },
    {
      "hash": "0x3516c99ebe70a367ce70e7136218ab5bab2affb26477a33bd0f859d478a64185",
      "transactionType": "CALL",
      "contractName": null,
      "contractAddress": "0xa61d461af55029b58d4846c9ea818de9cbc711d3",
      "function": "setOracle(address)",
      "arguments": [
        "0x55f1eda7d273cC6422B9D91B8ca3Fc9952fAD563"
      ],
      "transaction": {
        "from": "0x84d98c4faa590cd7ca746e18acf3bce8ad61e1b2",
        "to": "0xa61d461af55029b58d4846c9ea818de9cbc711d3",
        "gas": "0xa1e6",
        "value": "0x0",
        "input": "0x7adbf97300000000000000000000000055f1eda7d273cc6422b9d91b8ca3fc9952fad563",
        "nonce": "0x230",
        "chainId": "0x61"
      },
      "additionalContracts": [],
      "isFixedGasLimit": false
    }
  ],
  "receipts": [
    {
      "status": "0x1",
      "cumulativeGasUsed": "0x364aa",
      "logs": [],
      "logsBloom": "0x00000000000000000000000000000000000000000000000000000000000000000000000000000000000000000000000000000000000000000000000000000000000000000000000000000000000000000000000000000000000000000000000000000000000000000000000000000000000000000000000000000000000000000000000000000000000000000000000000000000000000000000000000000000000000000000000000000000000000000000000000000000000000000000000000000000000000000000000000000000000000000000000000000000000000000000000000000000000000000000000000000000000000000000000000000000",
      "type": "0x2",
      "transactionHash": "0x45388e390419b301df9eee446cd67b5d9308782a436c584ad71098682558759b",
      "transactionIndex": "0x1",
      "blockHash": "0x571c8934c2c3294fdaddad5a86ecc01e754152a4804902b47b1c692f5a83277f",
      "blockNumber": "0x66b3918",
      "gasUsed": "0x19ebb",
      "effectiveGasPrice": "0x68e7780",
      "from": "0x84d98c4faa590cd7ca746e18acf3bce8ad61e1b2",
      "to": null,
      "contractAddress": "0x55f1eda7d273cc6422b9d91b8ca3fc9952fad563"
    },
    {
      "status": "0x1",
      "cumulativeGasUsed": "0x3d9e1",
      "logs": [
        {
          "address": "0xa61d461af55029b58d4846c9ea818de9cbc711d3",
          "topics": [
            "0x3df77beb5db05fcdd70a30fc8adf3f83f9501b68579455adbd100b8180940394"
          ],
          "data": "0x00000000000000000000000055f1eda7d273cc6422b9d91b8ca3fc9952fad563",
          "blockHash": "0x571c8934c2c3294fdaddad5a86ecc01e754152a4804902b47b1c692f5a83277f",
          "blockNumber": "0x66b3918",
          "blockTimestamp": "0x6a07ea66",
          "transactionHash": "0x3516c99ebe70a367ce70e7136218ab5bab2affb26477a33bd0f859d478a64185",
          "transactionIndex": "0x2",
          "logIndex": "0x3",
          "removed": false
        }
      ],
      "logsBloom": "0x00000000000000000000000000000000000000000000000000000000000020000000000000000000000000000000000000000001000000000000000000000004000000000000000000000000000000000000000000000020000000000000000000000000000000000000000000000000000000000000000000000000000000000000000000000000000000000000000000000000000000000000000000000000000000000000000000000000000000000000000000000000000000080000000000000000000000000000000000000000000000000000000000000000000000000000000000001000000000000000000000000000000000000000000000000000",
      "type": "0x2",
      "transactionHash": "0x3516c99ebe70a367ce70e7136218ab5bab2affb26477a33bd0f859d478a64185",
      "transactionIndex": "0x2",
      "blockHash": "0x571c8934c2c3294fdaddad5a86ecc01e754152a4804902b47b1c692f5a83277f",
      "blockNumber": "0x66b3918",
      "gasUsed": "0x7537",
      "effectiveGasPrice": "0x68e7780",
      "from": "0x84d98c4faa590cd7ca746e18acf3bce8ad61e1b2",
      "to": "0xa61d461af55029b58d4846c9ea818de9cbc711d3",
      "contractAddress": null
    }
  ],
  "libraries": [],
  "pending": [],
  "returns": {},
  "timestamp": 1778903656054,
  "chain": 97,
  "commit": "cc742a13"
}