{
  "transactions": [
    {
      "hash": "0x3e9b927bb1aa3cade4dca0c7036c34b162088cc878f894197f6e56dbedc9d47d",
      "transactionType": "CREATE",
      "contractName": "SimplePriceOracle",
      "contractAddress": "0x961e014b856299b1d4b1083f453de226944f108e",
      "function": null,
      "arguments": null,
      "transaction": {
        "from": "0x84d98c4faa590cd7ca746e18acf3bce8ad61e1b2",
        "gas": "0x21b26",
        "value": "0x0",
        "input": "0x608080604052346100155760f4908161001a8239f35b5f80fdfe60808060405260043610156011575f80fd5b5f3560e01c908163456e08e214609f57508063c0d786551460625763f887ea40146039575f80fd5b34605e575f366003190112605e575f546040516001600160a01b039091168152602090f35b5f80fd5b34605e576020366003190112605e576004356001600160a01b03811690819003605e576bffffffffffffffffffffffff60a01b5f5416175f555f80f35b34605e575f366003190112605e5780682086ac35105260000060209252f3fea264697066735822122023cee38765671f2435306966c9de771c3eadcf770d60820cdb3a38fec614ae3264736f6c63430008180033",
        "nonce": "0x225",
        "chainId": "0x61"
      },
      "additionalContracts": [],
      "isFixedGasLimit": false
    },
    {
      "hash": "0xa16072744b66768c896d95105b37299f4f1471202c9e2313feba05c8c4073c7c",
      "transactionType": "CALL",
      "contractName": null,
      "contractAddress": "0x6cefb6cf2773565b69fbb23afaab89292bdb73f2",
      "function": "setOracle(address)",
      "arguments": [
        "0x961E014B856299b1D4B1083F453dE226944f108E"
      ],
      "transaction": {
        "from": "0x84d98c4faa590cd7ca746e18acf3bce8ad61e1b2",
        "to": "0x6cefb6cf2773565b69fbb23afaab89292bdb73f2",
        "gas": "0xa1e6",
        "value": "0x0",
        "input": "0x7adbf973000000000000000000000000961e014b856299b1d4b1083f453de226944f108e",
        "nonce": "0x226",
        "chainId": "0x61"
      },
      "additionalContracts": [],
      "isFixedGasLimit": false
    }
  ],
  "receipts": [
    {
      "status": "0x1",
      "cumulativeGasUsed": "0x6e271",
      "logs": [],
      "logsBloom": "0x00000000000000000000000000000000000000000000000000000000000000000000000000000000000000000000000000000000000000000000000000000000000000000000000000000000000000000000000000000000000000000000000000000000000000000000000000000000000000000000000000000000000000000000000000000000000000000000000000000000000000000000000000000000000000000000000000000000000000000000000000000000000000000000000000000000000000000000000000000000000000000000000000000000000000000000000000000000000000000000000000000000000000000000000000000000",
      "type": "0x2",
      "transactionHash": "0x3e9b927bb1aa3cade4dca0c7036c34b162088cc878f894197f6e56dbedc9d47d",
      "transactionIndex": "0x4",
      "blockHash": "0x937c6ba3c795feac73e15999a189de6ba0388de405f97e55f78702a5edcf6f33",
      "blockNumber": "0x66afac6",
      "gasUsed": "0x19ebb",
      "effectiveGasPrice": "0x68e7780",
      "from": "0x84d98c4faa590cd7ca746e18acf3bce8ad61e1b2",
      "to": null,
      "contractAddress": "0x961e014b856299b1d4b1083f453de226944f108e"
    },
    {
      "status": "0x1",
      "cumulativeGasUsed": "0x757a8",
      "logs": [
        {
          "address": "0x6cefb6cf2773565b69fbb23afaab89292bdb73f2",
          "topics": [
            "0x3df77beb5db05fcdd70a30fc8adf3f83f9501b68579455adbd100b8180940394"
          ],
          "data": "0x000000000000000000000000961e014b856299b1d4b1083f453de226944f108e",
          "blockHash": "0x937c6ba3c795feac73e15999a189de6ba0388de405f97e55f78702a5edcf6f33",
          "blockNumber": "0x66afac6",
          "blockTimestamp": "0x6a07ce5b",
          "transactionHash": "0xa16072744b66768c896d95105b37299f4f1471202c9e2313feba05c8c4073c7c",
          "transactionIndex": "0x5",
          "logIndex": "0xc",
          "removed": false
        }
      ],
      "logsBloom": "0x00000000000080000000000000000000000000000000000000000000000020000000000000000000000000000000000000000000000000000000000000000004000000000000000000000000000000000800000000000020000000000000000000000000000000000000000000000000000000000000000000000000000000000000000000000000000000000000000000000000000000000000000000000000000000000000000000000000000000000000000000000000000000000000000000000000000000000000000000000000000000000000400000000000000000000000000000000000000000000000000000000000000000000000000000000000",
      "type": "0x2",
      "transactionHash": "0xa16072744b66768c896d95105b37299f4f1471202c9e2313feba05c8c4073c7c",
      "transactionIndex": "0x5",
      "blockHash": "0x937c6ba3c795feac73e15999a189de6ba0388de405f97e55f78702a5edcf6f33",
      "blockNumber": "0x66afac6",
      "gasUsed": "0x7537",
      "effectiveGasPrice": "0x68e7780",
      "from": "0x84d98c4faa590cd7ca746e18acf3bce8ad61e1b2",
      "to": "0x6cefb6cf2773565b69fbb23afaab89292bdb73f2",
      "contractAddress": null
    }
  ],
  "libraries": [],
  "pending": [],
  "returns": {},
  "timestamp": 1778896476141,
  "chain": 97,
  "commit": "cc742a13"
}